{
  "_format": "hh-sol-artifact-1",
  "contractName": "Decentratwitter",
  "sourceName": "contracts/Decentratwitter.sol",
  "abi": [
    {
      "inputs": [],
      "stateMutability": "nonpayable",
      "type": "constructor"
    },
    {
      "anonymous": false,
      "inputs": [
        {
          "indexed": true,
          "internalType": "address",
          "name": "owner",
          "type": "address"
        },
        {
          "indexed": true,
          "internalType": "address",
          "name": "approved",
          "type": "address"
        },
        {
          "indexed": true,
          "internalType": "uint256",
          "name": "tokenId",
          "type": "uint256"
        }
      ],
      "name": "Approval",
      "type": "event"
    },
    {
      "anonymous": false,
      "inputs": [
        {
          "indexed": true,
          "internalType": "address",
          "name": "owner",
          "type": "address"
        },
        {
          "indexed": true,
          "internalType": "address",
          "name": "operator",
          "type": "address"
        },
        {
          "indexed": false,
          "internalType": "bool",
          "name": "approved",
          "type": "bool"
        }
      ],
      "name": "ApprovalForAll",
      "type": "event"
    },
    {
      "anonymous": false,
      "inputs": [
        {
          "indexed": false,
          "internalType": "uint256",
          "name": "id",
          "type": "uint256"
        },
        {
          "indexed": false,
          "internalType": "string",
          "name": "hash",
          "type": "string"
        },
        {
          "indexed": false,
          "internalType": "uint256",
          "name": "tipAmount",
          "type": "uint256"
        },
        {
          "indexed": false,
          "internalType": "address payable",
          "name": "author",
          "type": "address"
        }
      ],
      "name": "PostCreated",
      "type": "event"
    },
    {
      "anonymous": false,
      "inputs": [
        {
          "indexed": false,
          "internalType": "uint256",
          "name": "id",
          "type": "uint256"
        },
        {
          "indexed": false,
          "internalType": "string",
          "name": "hash",
          "type": "string"
        },
        {
          "indexed": false,
          "internalType": "uint256",
          "name": "tipAmount",
          "type": "uint256"
        },
        {
          "indexed": false,
          "internalType": "address payable",
          "name": "author",
          "type": "address"
        }
      ],
      "name": "PostTipped",
      "type": "event"
    },
    {
      "anonymous": false,
      "inputs": [
        {
          "indexed": true,
          "internalType": "address",
          "name": "from",
          "type": "address"
        },
        {
          "indexed": true,
          "internalType": "address",
          "name": "to",
          "type": "address"
        },
        {
          "indexed": true,
          "internalType": "uint256",
          "name": "tokenId",
          "type": "uint256"
        }
      ],
      "name": "Transfer",
      "type": "event"
    },
    {
      "inputs": [
        {
          "internalType": "address",
          "name": "to",
          "type": "address"
        },
        {
          "internalType": "uint256",
          "name": "tokenId",
          "type": "uint256"
        }
      ],
      "name": "approve",
      "outputs": [],
      "stateMutability": "nonpayable",
      "type": "function"
    },
    {
      "inputs": [
        {
          "internalType": "address",
          "name": "owner",
          "type": "address"
        }
      ],
      "name": "balanceOf",
      "outputs": [
        {
          "internalType": "uint256",
          "name": "",
          "type": "uint256"
        }
      ],
      "stateMutability": "view",
      "type": "function"
    },
    {
      "inputs": [],
      "name": "getAllPosts",
      "outputs": [
        {
          "components": [
            {
              "internalType": "uint256",
              "name": "id",
              "type": "uint256"
            },
            {
              "internalType": "string",
              "name": "hash",
              "type": "string"
            },
            {
              "internalType": "uint256",
              "name": "tipAmount",
              "type": "uint256"
            },
            {
              "internalType": "address payable",
              "name": "author",
              "type": "address"
            }
          ],
          "internalType": "struct Decentratwitter.Post[]",
          "name": "_posts",
          "type": "tuple[]"
        }
      ],
      "stateMutability": "view",
      "type": "function"
    },
    {
      "inputs": [
        {
          "internalType": "uint256",
          "name": "tokenId",
          "type": "uint256"
        }
      ],
      "name": "getApproved",
      "outputs": [
        {
          "internalType": "address",
          "name": "",
          "type": "address"
        }
      ],
      "stateMutability": "view",
      "type": "function"
    },
    {
      "inputs": [],
      "name": "getMyNfts",
      "outputs": [
        {
          "internalType": "uint256[]",
          "name": "_ids",
          "type": "uint256[]"
        }
      ],
      "stateMutability": "view",
      "type": "function"
    },
    {
      "inputs": [
        {
          "internalType": "address",
          "name": "owner",
          "type": "address"
        },
        {
          "internalType": "address",
          "name": "operator",
          "type": "address"
        }
      ],
      "name": "isApprovedForAll",
      "outputs": [
        {
          "internalType": "bool",
          "name": "",
          "type": "bool"
        }
      ],
      "stateMutability": "view",
      "type": "function"
    },
    {
      "inputs": [
        {
          "internalType": "string",
          "name": "_tokenURI",
          "type": "string"
        }
      ],
      "name": "mint",
      "outputs": [
        {
          "internalType": "uint256",
          "name": "",
          "type": "uint256"
        }
      ],
      "stateMutability": "nonpayable",
      "type": "function"
    },
    {
      "inputs": [],
      "name": "name",
      "outputs": [
        {
          "internalType": "string",
          "name": "",
          "type": "string"
        }
      ],
      "stateMutability": "view",
      "type": "function"
    },
    {
      "inputs": [
        {
          "internalType": "uint256",
          "name": "tokenId",
          "type": "uint256"
        }
      ],
      "name": "ownerOf",
      "outputs": [
        {
          "internalType": "address",
          "name": "",
          "type": "address"
        }
      ],
      "stateMutability": "view",
      "type": "function"
    },
    {
      "inputs": [],
      "name": "postCount",
      "outputs": [
        {
          "internalType": "uint256",
          "name": "",
          "type": "uint256"
        }
      ],
      "stateMutability": "view",
      "type": "function"
    },
    {
      "inputs": [
        {
          "internalType": "uint256",
          "name": "",
          "type": "uint256"
        }
      ],
      "name": "posts",
      "outputs": [
        {
          "internalType": "uint256",
          "name": "id",
          "type": "uint256"
        },
        {
          "internalType": "string",
          "name": "hash",
          "type": "string"
        },
        {
          "internalType": "uint256",
          "name": "tipAmount",
          "type": "uint256"
        },
        {
          "internalType": "address payable",
          "name": "author",
          "type": "address"
        }
      ],
      "stateMutability": "view",
      "type": "function"
    },
    {
      "inputs": [
        {
          "internalType": "address",
          "name": "",
          "type": "address"
        }
      ],
      "name": "profiles",
      "outputs": [
        {
          "internalType": "uint256",
          "name": "",
          "type": "uint256"
        }
      ],
      "stateMutability": "view",
      "type": "function"
    },
    {
      "inputs": [
        {
          "internalType": "address",
          "name": "from",
          "type": "address"
        },
        {
          "internalType": "address",
          "name": "to",
          "type": "address"
        },
        {
          "internalType": "uint256",
          "name": "tokenId",
          "type": "uint256"
        }
      ],
      "name": "safeTransferFrom",
      "outputs": [],
      "stateMutability": "nonpayable",
      "type": "function"
    },
    {
      "inputs": [
        {
          "internalType": "address",
          "name": "from",
          "type": "address"
        },
        {
          "internalType": "address",
          "name": "to",
          "type": "address"
        },
        {
          "internalType": "uint256",
          "name": "tokenId",
          "type": "uint256"
        },
        {
          "internalType": "bytes",
          "name": "_data",
          "type": "bytes"
        }
      ],
      "name": "safeTransferFrom",
      "outputs": [],
      "stateMutability": "nonpayable",
      "type": "function"
    },
    {
      "inputs": [
        {
          "internalType": "address",
          "name": "operator",
          "type": "address"
        },
        {
          "internalType": "bool",
          "name": "approved",
          "type": "bool"
        }
      ],
      "name": "setApprovalForAll",
      "outputs": [],
      "stateMutability": "nonpayable",
      "type": "function"
    },
    {
      "inputs": [
        {
          "internalType": "uint256",
          "name": "_id",
          "type": "uint256"
        }
      ],
      "name": "setProfile",
      "outputs": [],
      "stateMutability": "nonpayable",
      "type": "function"
    },
    {
      "inputs": [
        {
          "internalType": "bytes4",
          "name": "interfaceId",
          "type": "bytes4"
        }
      ],
      "name": "supportsInterface",
      "outputs": [
        {
          "internalType": "bool",
          "name": "",
          "type": "bool"
        }
      ],
      "stateMutability": "view",
      "type": "function"
    },
    {
      "inputs": [],
      "name": "symbol",
      "outputs": [
        {
          "internalType": "string",
          "name": "",
          "type": "string"
        }
      ],
      "stateMutability": "view",
      "type": "function"
    },
    {
      "inputs": [
        {
          "internalType": "uint256",
          "name": "_id",
          "type": "uint256"
        }
      ],
      "name": "tipPostOwner",
      "outputs": [],
      "stateMutability": "payable",
      "type": "function"
    },
    {
      "inputs": [],
      "name": "tokenCount",
      "outputs": [
        {
          "internalType": "uint256",
          "name": "",
          "type": "uint256"
        }
      ],
      "stateMutability": "view",
      "type": "function"
    },
    {
      "inputs": [
        {
          "internalType": "uint256",
          "name": "tokenId",
          "type": "uint256"
        }
      ],
      "name": "tokenURI",
      "outputs": [
        {
          "internalType": "string",
          "name": "",
          "type": "string"
        }
      ],
      "stateMutability": "view",
      "type": "function"
    },
    {
      "inputs": [
        {
          "internalType": "address",
          "name": "from",
          "type": "address"
        },
        {
          "internalType": "address",
          "name": "to",
          "type": "address"
        },
        {
          "internalType": "uint256",
          "name": "tokenId",
          "type": "uint256"
        }
      ],
      "name": "transferFrom",
      "outputs": [],
      "stateMutability": "nonpayable",
      "type": "function"
    },
    {
      "inputs": [
        {
          "internalType": "string",
          "name": "_postHash",
          "type": "string"
        }
      ],
      "name": "uploadPost",
      "outputs": [],
      "stateMutability": "nonpayable",
      "type": "function"
    }
  ],
  "bytecode": "0x60806040523480156200001157600080fd5b506040518060400160405280600f81526020017f446563656e7472617477697474657200000000000000000000000000000000008152506040518060400160405280600481526020017f4441505000000000000000000000000000000000000000000000000000000000815250816000908051906020019062000096929190620000b8565b508060019080519060200190620000af929190620000b8565b505050620001cd565b828054620000c69062000168565b90600052602060002090601f016020900481019282620000ea576000855562000136565b82601f106200010557805160ff191683800117855562000136565b8280016001018555821562000136579182015b828111156200013557825182559160200191906001019062000118565b5b50905062000145919062000149565b5090565b5b80821115620001645760008160009055506001016200014a565b5090565b600060028204905060018216806200018157607f821691505b602082108114156200019857620001976200019e565b5b50919050565b7f4e487b7100000000000000000000000000000000000000000000000000000000600052602260045260246000fd5b613f9280620001dd6000396000f3fe6080604052600436106101405760003560e01c806370a08231116100b6578063bbe156271161006f578063bbe1562714610471578063bdd05adb146104ae578063c87b56dd146104d7578063d6313c0614610514578063d85d3d2714610530578063e985e9c51461056d57610140565b806370a082311461036357806385d3cb37146103a057806395d89b41146103c95780639f181b5e146103f4578063a22cb4651461041f578063b88d4fde1461044857610140565b80630b1e7f83116101085780630b1e7f831461023e57806317906c2e1461027e57806323b872dd146102a957806330561100146102d257806342842e0e146102fd5780636352211e1461032657610140565b806301ffc9a714610145578063047b07bf1461018257806306fdde03146101ad578063081812fc146101d8578063095ea7b314610215575b600080fd5b34801561015157600080fd5b5061016c6004803603810190610167919061298a565b6105aa565b60405161017991906130f6565b60405180910390f35b34801561018e57600080fd5b5061019761068c565b6040516101a491906130d4565b60405180910390f35b3480156101b957600080fd5b506101c26107dc565b6040516101cf9190613111565b60405180910390f35b3480156101e457600080fd5b506101ff60048036038101906101fa9190612a1d565b61086e565b60405161020c919061304b565b60405180910390f35b34801561022157600080fd5b5061023c6004803603810190610237919061294e565b6108f3565b005b34801561024a57600080fd5b5061026560048036038101906102609190612a1d565b610a0b565b604051610275949392919061345a565b60405180910390f35b34801561028a57600080fd5b50610293610ae3565b6040516102a091906133f3565b60405180910390f35b3480156102b557600080fd5b506102d060048036038101906102cb9190612848565b610ae9565b005b3480156102de57600080fd5b506102e7610b49565b6040516102f491906130b2565b60405180910390f35b34801561030957600080fd5b50610324600480360381019061031f9190612848565b610d56565b005b34801561033257600080fd5b5061034d60048036038101906103489190612a1d565b610d76565b60405161035a919061304b565b60405180910390f35b34801561036f57600080fd5b5061038a600480360381019061038591906127e3565b610e28565b60405161039791906133f3565b60405180910390f35b3480156103ac57600080fd5b506103c760048036038101906103c29190612a1d565b610ee0565b005b3480156103d557600080fd5b506103de610f9d565b6040516103eb9190613111565b60405180910390f35b34801561040057600080fd5b5061040961102f565b60405161041691906133f3565b60405180910390f35b34801561042b57600080fd5b5061044660048036038101906104419190612912565b611035565b005b34801561045457600080fd5b5061046f600480360381019061046a9190612897565b61104b565b005b34801561047d57600080fd5b50610498600480360381019061049391906127e3565b6110ad565b6040516104a591906133f3565b60405180910390f35b3480156104ba57600080fd5b506104d560048036038101906104d091906129dc565b6110c5565b005b3480156104e357600080fd5b506104fe60048036038101906104f99190612a1d565b611279565b60405161050b9190613111565b60405180910390f35b61052e60048036038101906105299190612a1d565b6113cb565b005b34801561053c57600080fd5b50610557600480360381019061055291906129dc565b611753565b60405161056491906133f3565b60405180910390f35b34801561057957600080fd5b50610594600480360381019061058f919061280c565b61179a565b6040516105a191906130f6565b60405180910390f35b60007f80ac58cd000000000000000000000000000000000000000000000000000000007bffffffffffffffffffffffffffffffffffffffffffffffffffffffff1916827bffffffffffffffffffffffffffffffffffffffffffffffffffffffff1916148061067557507f5b5e139f000000000000000000000000000000000000000000000000000000007bffffffffffffffffffffffffffffffffffffffffffffffffffffffff1916827bffffffffffffffffffffffffffffffffffffffffffffffffffffffff1916145b8061068557506106848261182e565b5b9050919050565b606061069733610e28565b67ffffffffffffffff8111156106d6577f4e487b7100000000000000000000000000000000000000000000000000000000600052604160045260246000fd5b6040519080825280602002602001820160405280156107045781602001602082028036833780820191505090505b509050600080600754905060005b818110156107d6573373ffffffffffffffffffffffffffffffffffffffff1661074660018361074191906135fe565b610d76565b73ffffffffffffffffffffffffffffffffffffffff1614156107c35760018161076f91906135fe565b8484815181106107a8577f4e487b7100000000000000000000000000000000000000000000000000000000600052603260045260246000fd5b60200260200101818152505082806107bf906137f6565b9350505b80806107ce906137f6565b915050610712565b50505090565b6060600080546107eb90613793565b80601f016020809104026020016040519081016040528092919081815260200182805461081790613793565b80156108645780601f1061083957610100808354040283529160200191610864565b820191906000526020600020905b81548152906001019060200180831161084757829003601f168201915b5050505050905090565b600061087982611898565b6108b8576040517f08c379a00000000000000000000000000000000000000000000000000000000081526004016108af906132d3565b60405180910390fd5b6004600083815260200190815260200160002060009054906101000a900473ffffffffffffffffffffffffffffffffffffffff169050919050565b60006108fe82610d76565b90508073ffffffffffffffffffffffffffffffffffffffff168373ffffffffffffffffffffffffffffffffffffffff16141561096f576040517f08c379a000000000000000000000000000000000000000000000000000000000815260040161096690613333565b60405180910390fd5b8073ffffffffffffffffffffffffffffffffffffffff1661098e611904565b73ffffffffffffffffffffffffffffffffffffffff1614806109bd57506109bc816109b7611904565b61179a565b5b6109fc576040517f08c379a00000000000000000000000000000000000000000000000000000000081526004016109f3906131f3565b60405180910390fd5b610a06838361190c565b505050565b6009602052806000526040600020600091509050806000015490806001018054610a3490613793565b80601f0160208091040260200160405190810160405280929190818152602001828054610a6090613793565b8015610aad5780601f10610a8257610100808354040283529160200191610aad565b820191906000526020600020905b815481529060010190602001808311610a9057829003601f168201915b5050505050908060020154908060030160009054906101000a900473ffffffffffffffffffffffffffffffffffffffff16905084565b60085481565b610afa610af4611904565b826119c5565b610b39576040517f08c379a0000000000000000000000000000000000000000000000000000000008152600401610b30906133d3565b60405180910390fd5b610b44838383611aa3565b505050565b606060085467ffffffffffffffff811115610b8d577f4e487b7100000000000000000000000000000000000000000000000000000000600052604160045260246000fd5b604051908082528060200260200182016040528015610bc657816020015b610bb36125c9565b815260200190600190039081610bab5790505b50905060005b8151811015610d525760096000600183610be691906135fe565b815260200190815260200160002060405180608001604052908160008201548152602001600182018054610c1990613793565b80601f0160208091040260200160405190810160405280929190818152602001828054610c4590613793565b8015610c925780601f10610c6757610100808354040283529160200191610c92565b820191906000526020600020905b815481529060010190602001808311610c7557829003601f168201915b50505050508152602001600282015481526020016003820160009054906101000a900473ffffffffffffffffffffffffffffffffffffffff1673ffffffffffffffffffffffffffffffffffffffff1673ffffffffffffffffffffffffffffffffffffffff1681525050828281518110610d34577f4e487b7100000000000000000000000000000000000000000000000000000000600052603260045260246000fd5b60200260200101819052508080610d4a906137f6565b915050610bcc565b5090565b610d718383836040518060200160405280600081525061104b565b505050565b6000806002600084815260200190815260200160002060009054906101000a900473ffffffffffffffffffffffffffffffffffffffff169050600073ffffffffffffffffffffffffffffffffffffffff168173ffffffffffffffffffffffffffffffffffffffff161415610e1f576040517f08c379a0000000000000000000000000000000000000000000000000000000008152600401610e1690613233565b60405180910390fd5b80915050919050565b60008073ffffffffffffffffffffffffffffffffffffffff168273ffffffffffffffffffffffffffffffffffffffff161415610e99576040517f08c379a0000000000000000000000000000000000000000000000000000000008152600401610e9090613213565b60405180910390fd5b600360008373ffffffffffffffffffffffffffffffffffffffff1673ffffffffffffffffffffffffffffffffffffffff168152602001908152602001600020549050919050565b3373ffffffffffffffffffffffffffffffffffffffff16610f0082610d76565b73ffffffffffffffffffffffffffffffffffffffff1614610f56576040517f08c379a0000000000000000000000000000000000000000000000000000000008152600401610f4d90613373565b60405180910390fd5b80600a60003373ffffffffffffffffffffffffffffffffffffffff1673ffffffffffffffffffffffffffffffffffffffff1681526020019081526020016000208190555050565b606060018054610fac90613793565b80601f0160208091040260200160405190810160405280929190818152602001828054610fd890613793565b80156110255780601f10610ffa57610100808354040283529160200191611025565b820191906000526020600020905b81548152906001019060200180831161100857829003601f168201915b5050505050905090565b60075481565b611047611040611904565b8383611d0a565b5050565b61105c611056611904565b836119c5565b61109b576040517f08c379a0000000000000000000000000000000000000000000000000000000008152600401611092906133d3565b60405180910390fd5b6110a784848484611e77565b50505050565b600a6020528060005260406000206000915090505481565b60006110d033610e28565b11611110576040517f08c379a0000000000000000000000000000000000000000000000000000000008152600401611107906133b3565b60405180910390fd5b6000815111611154576040517f08c379a000000000000000000000000000000000000000000000000000000000815260040161114b906132f3565b60405180910390fd5b60086000815480929190611167906137f6565b919050555060405180608001604052806008548152602001828152602001600081526020013373ffffffffffffffffffffffffffffffffffffffff168152506009600060085481526020019081526020016000206000820151816000015560208201518160010190805190602001906111e1929190612607565b506040820151816002015560608201518160030160006101000a81548173ffffffffffffffffffffffffffffffffffffffff021916908373ffffffffffffffffffffffffffffffffffffffff1602179055509050507fc66336337a24e513f909b3b25119854dba8385d51307dbc7d31d1b2805e19c7e6008548260003360405161126e949392919061340e565b60405180910390a150565b606061128482611898565b6112c3576040517f08c379a00000000000000000000000000000000000000000000000000000000081526004016112ba906132b3565b60405180910390fd5b60006006600084815260200190815260200160002080546112e390613793565b80601f016020809104026020016040519081016040528092919081815260200182805461130f90613793565b801561135c5780601f106113315761010080835404028352916020019161135c565b820191906000526020600020905b81548152906001019060200180831161133f57829003601f168201915b50505050509050600061136d611ed3565b90506000815114156113835781925050506113c6565b6000825111156113b85780826040516020016113a0929190613012565b604051602081830303815290604052925050506113c6565b6113c184611eea565b925050505b919050565b6000811180156113dd57506008548111155b61141c576040517f08c379a000000000000000000000000000000000000000000000000000000000815260040161141390613273565b60405180910390fd5b6000600960008381526020019081526020016000206040518060800160405290816000820154815260200160018201805461145690613793565b80601f016020809104026020016040519081016040528092919081815260200182805461148290613793565b80156114cf5780601f106114a4576101008083540402835291602001916114cf565b820191906000526020600020905b8154815290600101906020018083116114b257829003601f168201915b50505050508152602001600282015481526020016003820160009054906101000a900473ffffffffffffffffffffffffffffffffffffffff1673ffffffffffffffffffffffffffffffffffffffff1673ffffffffffffffffffffffffffffffffffffffff168152505090503373ffffffffffffffffffffffffffffffffffffffff16816060015173ffffffffffffffffffffffffffffffffffffffff1614156115ad576040517f08c379a00000000000000000000000000000000000000000000000000000000081526004016115a490613393565b60405180910390fd5b6000816060015173ffffffffffffffffffffffffffffffffffffffff16346040516115d790613036565b60006040518083038185875af1925050503d8060008114611614576040519150601f19603f3d011682016040523d82523d6000602084013e611619565b606091505b505090508061165d576040517f08c379a000000000000000000000000000000000000000000000000000000000815260040161165490613353565b60405180910390fd5b348260400181815161166f91906135fe565b9150818152505081600960008581526020019081526020016000206000820151816000015560208201518160010190805190602001906116b0929190612607565b506040820151816002015560608201518160030160006101000a81548173ffffffffffffffffffffffffffffffffffffffff021916908373ffffffffffffffffffffffffffffffffffffffff1602179055509050507f20988fe475351e75813672abada1dddb7ac67cbbeb81e61e1160b8329d8cdf1c83836020015184604001518560600151604051611746949392919061345a565b60405180910390a1505050565b600060076000815480929190611768906137f6565b919050555061177933600754611f91565b61178560075483611faf565b611790600754610ee0565b6007549050919050565b6000600560008473ffffffffffffffffffffffffffffffffffffffff1673ffffffffffffffffffffffffffffffffffffffff16815260200190815260200160002060008373ffffffffffffffffffffffffffffffffffffffff1673ffffffffffffffffffffffffffffffffffffffff16815260200190815260200160002060009054906101000a900460ff16905092915050565b60007f01ffc9a7000000000000000000000000000000000000000000000000000000007bffffffffffffffffffffffffffffffffffffffffffffffffffffffff1916827bffffffffffffffffffffffffffffffffffffffffffffffffffffffff1916149050919050565b60008073ffffffffffffffffffffffffffffffffffffffff166002600084815260200190815260200160002060009054906101000a900473ffffffffffffffffffffffffffffffffffffffff1673ffffffffffffffffffffffffffffffffffffffff1614159050919050565b600033905090565b816004600083815260200190815260200160002060006101000a81548173ffffffffffffffffffffffffffffffffffffffff021916908373ffffffffffffffffffffffffffffffffffffffff160217905550808273ffffffffffffffffffffffffffffffffffffffff1661197f83610d76565b73ffffffffffffffffffffffffffffffffffffffff167f8c5be1e5ebec7d5bd14f71427d1e84f3dd0314c0f7b2291e5b200ac8c7c3b92560405160405180910390a45050565b60006119d082611898565b611a0f576040517f08c379a0000000000000000000000000000000000000000000000000000000008152600401611a06906131d3565b60405180910390fd5b6000611a1a83610d76565b90508073ffffffffffffffffffffffffffffffffffffffff168473ffffffffffffffffffffffffffffffffffffffff161480611a8957508373ffffffffffffffffffffffffffffffffffffffff16611a718461086e565b73ffffffffffffffffffffffffffffffffffffffff16145b80611a9a5750611a99818561179a565b5b91505092915050565b8273ffffffffffffffffffffffffffffffffffffffff16611ac382610d76565b73ffffffffffffffffffffffffffffffffffffffff1614611b19576040517f08c379a0000000000000000000000000000000000000000000000000000000008152600401611b1090613153565b60405180910390fd5b600073ffffffffffffffffffffffffffffffffffffffff168273ffffffffffffffffffffffffffffffffffffffff161415611b89576040517f08c379a0000000000000000000000000000000000000000000000000000000008152600401611b8090613193565b60405180910390fd5b611b94838383612023565b611b9f60008261190c565b6001600360008573ffffffffffffffffffffffffffffffffffffffff1673ffffffffffffffffffffffffffffffffffffffff1681526020019081526020016000206000828254611bef9190613685565b925050819055506001600360008473ffffffffffffffffffffffffffffffffffffffff1673ffffffffffffffffffffffffffffffffffffffff1681526020019081526020016000206000828254611c4691906135fe565b92505081905550816002600083815260200190815260200160002060006101000a81548173ffffffffffffffffffffffffffffffffffffffff021916908373ffffffffffffffffffffffffffffffffffffffff160217905550808273ffffffffffffffffffffffffffffffffffffffff168473ffffffffffffffffffffffffffffffffffffffff167fddf252ad1be2c89b69c2b068fc378daa952ba7f163c4a11628f55a4df523b3ef60405160405180910390a4611d05838383612028565b505050565b8173ffffffffffffffffffffffffffffffffffffffff168373ffffffffffffffffffffffffffffffffffffffff161415611d79576040517f08c379a0000000000000000000000000000000000000000000000000000000008152600401611d70906131b3565b60405180910390fd5b80600560008573ffffffffffffffffffffffffffffffffffffffff1673ffffffffffffffffffffffffffffffffffffffff16815260200190815260200160002060008473ffffffffffffffffffffffffffffffffffffffff1673ffffffffffffffffffffffffffffffffffffffff16815260200190815260200160002060006101000a81548160ff0219169083151502179055508173ffffffffffffffffffffffffffffffffffffffff168373ffffffffffffffffffffffffffffffffffffffff167f17307eab39ab6107e8899845ad3d59bd9653f200f220920489ca2b5937696c3183604051611e6a91906130f6565b60405180910390a3505050565b611e82848484611aa3565b611e8e8484848461202d565b611ecd576040517f08c379a0000000000000000000000000000000000000000000000000000000008152600401611ec490613133565b60405180910390fd5b50505050565b606060405180602001604052806000815250905090565b6060611ef582611898565b611f34576040517f08c379a0000000000000000000000000000000000000000000000000000000008152600401611f2b90613313565b60405180910390fd5b6000611f3e611ed3565b90506000815111611f5e5760405180602001604052806000815250611f89565b80611f68846121c4565b604051602001611f79929190613012565b6040516020818303038152906040525b915050919050565b611fab828260405180602001604052806000815250612371565b5050565b611fb882611898565b611ff7576040517f08c379a0000000000000000000000000000000000000000000000000000000008152600401611fee90613253565b60405180910390fd5b8060066000848152602001908152602001600020908051906020019061201e929190612607565b505050565b505050565b505050565b600061204e8473ffffffffffffffffffffffffffffffffffffffff166123cc565b156121b7578373ffffffffffffffffffffffffffffffffffffffff1663150b7a02612077611904565b8786866040518563ffffffff1660e01b81526004016120999493929190613066565b602060405180830381600087803b1580156120b357600080fd5b505af19250505080156120e457506040513d601f19601f820116820180604052508101906120e191906129b3565b60015b612167573d8060008114612114576040519150601f19603f3d011682016040523d82523d6000602084013e612119565b606091505b5060008151141561215f576040517f08c379a000000000000000000000000000000000000000000000000000000000815260040161215690613133565b60405180910390fd5b805181602001fd5b63150b7a0260e01b7bffffffffffffffffffffffffffffffffffffffffffffffffffffffff1916817bffffffffffffffffffffffffffffffffffffffffffffffffffffffff1916149150506121bc565b600190505b949350505050565b6060600082141561220c576040518060400160405280600181526020017f3000000000000000000000000000000000000000000000000000000000000000815250905061236c565b600082905060005b6000821461223e578080612227906137f6565b915050600a826122379190613654565b9150612214565b60008167ffffffffffffffff811115612280577f4e487b7100000000000000000000000000000000000000000000000000000000600052604160045260246000fd5b6040519080825280601f01601f1916602001820160405280156122b25781602001600182028036833780820191505090505b5090505b60008514612365576001826122cb9190613685565b9150600a856122da919061383f565b60306122e691906135fe565b60f81b818381518110612322577f4e487b7100000000000000000000000000000000000000000000000000000000600052603260045260246000fd5b60200101907effffffffffffffffffffffffffffffffffffffffffffffffffffffffffffff1916908160001a905350600a8561235e9190613654565b94506122b6565b8093505050505b919050565b61237b83836123ef565b612388600084848461202d565b6123c7576040517f08c379a00000000000000000000000000000000000000000000000000000000081526004016123be90613133565b60405180910390fd5b505050565b6000808273ffffffffffffffffffffffffffffffffffffffff163b119050919050565b600073ffffffffffffffffffffffffffffffffffffffff168273ffffffffffffffffffffffffffffffffffffffff16141561245f576040517f08c379a000000000000000000000000000000000000000000000000000000000815260040161245690613293565b60405180910390fd5b61246881611898565b156124a8576040517f08c379a000000000000000000000000000000000000000000000000000000000815260040161249f90613173565b60405180910390fd5b6124b460008383612023565b6001600360008473ffffffffffffffffffffffffffffffffffffffff1673ffffffffffffffffffffffffffffffffffffffff168152602001908152602001600020600082825461250491906135fe565b92505081905550816002600083815260200190815260200160002060006101000a81548173ffffffffffffffffffffffffffffffffffffffff021916908373ffffffffffffffffffffffffffffffffffffffff160217905550808273ffffffffffffffffffffffffffffffffffffffff16600073ffffffffffffffffffffffffffffffffffffffff167fddf252ad1be2c89b69c2b068fc378daa952ba7f163c4a11628f55a4df523b3ef60405160405180910390a46125c560008383612028565b5050565b6040518060800160405280600081526020016060815260200160008152602001600073ffffffffffffffffffffffffffffffffffffffff1681525090565b82805461261390613793565b90600052602060002090601f016020900481019282612635576000855561267c565b82601f1061264e57805160ff191683800117855561267c565b8280016001018555821561267c579182015b8281111561267b578251825591602001919060010190612660565b5b509050612689919061268d565b5090565b5b808211156126a657600081600090555060010161268e565b5090565b60006126bd6126b8846134cb565b6134a6565b9050828152602081018484840111156126d557600080fd5b6126e0848285613751565b509392505050565b60006126fb6126f6846134fc565b6134a6565b90508281526020810184848401111561271357600080fd5b61271e848285613751565b509392505050565b60008135905061273581613f00565b92915050565b60008135905061274a81613f17565b92915050565b60008135905061275f81613f2e565b92915050565b60008151905061277481613f2e565b92915050565b600082601f83011261278b57600080fd5b813561279b8482602086016126aa565b91505092915050565b600082601f8301126127b557600080fd5b81356127c58482602086016126e8565b91505092915050565b6000813590506127dd81613f45565b92915050565b6000602082840312156127f557600080fd5b600061280384828501612726565b91505092915050565b6000806040838503121561281f57600080fd5b600061282d85828601612726565b925050602061283e85828601612726565b9150509250929050565b60008060006060848603121561285d57600080fd5b600061286b86828701612726565b935050602061287c86828701612726565b925050604061288d868287016127ce565b9150509250925092565b600080600080608085870312156128ad57600080fd5b60006128bb87828801612726565b94505060206128cc87828801612726565b93505060406128dd878288016127ce565b925050606085013567ffffffffffffffff8111156128fa57600080fd5b6129068782880161277a565b91505092959194509250565b6000806040838503121561292557600080fd5b600061293385828601612726565b92505060206129448582860161273b565b9150509250929050565b6000806040838503121561296157600080fd5b600061296f85828601612726565b9250506020612980858286016127ce565b9150509250929050565b60006020828403121561299c57600080fd5b60006129aa84828501612750565b91505092915050565b6000602082840312156129c557600080fd5b60006129d384828501612765565b91505092915050565b6000602082840312156129ee57600080fd5b600082013567ffffffffffffffff811115612a0857600080fd5b612a14848285016127a4565b91505092915050565b600060208284031215612a2f57600080fd5b6000612a3d848285016127ce565b91505092915050565b6000612a528383612f91565b905092915050565b6000612a668383612ff4565b60208301905092915050565b612a7b816136cb565b82525050565b612a8a816136cb565b82525050565b612a99816136b9565b82525050565b6000612aaa8261354d565b612ab48185613593565b935083602082028501612ac68561352d565b8060005b85811015612b025784840389528151612ae38582612a46565b9450612aee83613579565b925060208a01995050600181019050612aca565b50829750879550505050505092915050565b6000612b1f82613558565b612b2981856135a4565b9350612b348361353d565b8060005b83811015612b65578151612b4c8882612a5a565b9750612b5783613586565b925050600181019050612b38565b5085935050505092915050565b612b7b816136dd565b82525050565b6000612b8c82613563565b612b9681856135b5565b9350612ba6818560208601613760565b612baf8161392c565b840191505092915050565b612bc38161373f565b82525050565b6000612bd48261356e565b612bde81856135d1565b9350612bee818560208601613760565b612bf78161392c565b840191505092915050565b6000612c0d8261356e565b612c1781856135e2565b9350612c27818560208601613760565b612c308161392c565b840191505092915050565b6000612c468261356e565b612c5081856135f3565b9350612c60818560208601613760565b80840191505092915050565b6000612c796032836135e2565b9150612c848261393d565b604082019050919050565b6000612c9c6025836135e2565b9150612ca78261398c565b604082019050919050565b6000612cbf601c836135e2565b9150612cca826139db565b602082019050919050565b6000612ce26024836135e2565b9150612ced82613a04565b604082019050919050565b6000612d056019836135e2565b9150612d1082613a53565b602082019050919050565b6000612d28602c836135e2565b9150612d3382613a7c565b604082019050919050565b6000612d4b6038836135e2565b9150612d5682613acb565b604082019050919050565b6000612d6e602a836135e2565b9150612d7982613b1a565b604082019050919050565b6000612d916029836135e2565b9150612d9c82613b69565b604082019050919050565b6000612db4602e836135e2565b9150612dbf82613bb8565b604082019050919050565b6000612dd7600f836135e2565b9150612de282613c07565b602082019050919050565b6000612dfa6020836135e2565b9150612e0582613c30565b602082019050919050565b6000612e1d6031836135e2565b9150612e2882613c59565b604082019050919050565b6000612e40602c836135e2565b9150612e4b82613ca8565b604082019050919050565b6000612e636019836135e2565b9150612e6e82613cf7565b602082019050919050565b6000612e86602f836135e2565b9150612e9182613d20565b604082019050919050565b6000612ea96021836135e2565b9150612eb482613d6f565b604082019050919050565b6000612ecc6016836135e2565b9150612ed782613dbe565b602082019050919050565b6000612eef6033836135e2565b9150612efa82613de7565b604082019050919050565b6000612f126018836135e2565b9150612f1d82613e36565b602082019050919050565b6000612f356000836135c6565b9150612f4082613e5f565b600082019050919050565b6000612f586026836135e2565b9150612f6382613e62565b604082019050919050565b6000612f7b6031836135e2565b9150612f8682613eb1565b604082019050919050565b6000608083016000830151612fa96000860182612ff4565b5060208301518482036020860152612fc18282612bc9565b9150506040830151612fd66040860182612ff4565b506060830151612fe96060860182612a72565b508091505092915050565b612ffd81613735565b82525050565b61300c81613735565b82525050565b600061301e8285612c3b565b915061302a8284612c3b565b91508190509392505050565b600061304182612f28565b9150819050919050565b60006020820190506130606000830184612a90565b92915050565b600060808201905061307b6000830187612a90565b6130886020830186612a90565b6130956040830185613003565b81810360608301526130a78184612b81565b905095945050505050565b600060208201905081810360008301526130cc8184612a9f565b905092915050565b600060208201905081810360008301526130ee8184612b14565b905092915050565b600060208201905061310b6000830184612b72565b92915050565b6000602082019050818103600083015261312b8184612c02565b905092915050565b6000602082019050818103600083015261314c81612c6c565b9050919050565b6000602082019050818103600083015261316c81612c8f565b9050919050565b6000602082019050818103600083015261318c81612cb2565b9050919050565b600060208201905081810360008301526131ac81612cd5565b9050919050565b600060208201905081810360008301526131cc81612cf8565b9050919050565b600060208201905081810360008301526131ec81612d1b565b9050919050565b6000602082019050818103600083015261320c81612d3e565b9050919050565b6000602082019050818103600083015261322c81612d61565b9050919050565b6000602082019050818103600083015261324c81612d84565b9050919050565b6000602082019050818103600083015261326c81612da7565b9050919050565b6000602082019050818103600083015261328c81612dca565b9050919050565b600060208201905081810360008301526132ac81612ded565b9050919050565b600060208201905081810360008301526132cc81612e10565b9050919050565b600060208201905081810360008301526132ec81612e33565b9050919050565b6000602082019050818103600083015261330c81612e56565b9050919050565b6000602082019050818103600083015261332c81612e79565b9050919050565b6000602082019050818103600083015261334c81612e9c565b9050919050565b6000602082019050818103600083015261336c81612ebf565b9050919050565b6000602082019050818103600083015261338c81612ee2565b9050919050565b600060208201905081810360008301526133ac81612f05565b9050919050565b600060208201905081810360008301526133cc81612f4b565b9050919050565b600060208201905081810360008301526133ec81612f6e565b9050919050565b60006020820190506134086000830184613003565b92915050565b60006080820190506134236000830187613003565b81810360208301526134358186612c02565b90506134446040830185612bba565b6134516060830184612a81565b95945050505050565b600060808201905061346f6000830187613003565b81810360208301526134818186612c02565b90506134906040830185613003565b61349d6060830184612a81565b95945050505050565b60006134b06134c1565b90506134bc82826137c5565b919050565b6000604051905090565b600067ffffffffffffffff8211156134e6576134e56138fd565b5b6134ef8261392c565b9050602081019050919050565b600067ffffffffffffffff821115613517576135166138fd565b5b6135208261392c565b9050602081019050919050565b6000819050602082019050919050565b6000819050602082019050919050565b600081519050919050565b600081519050919050565b600081519050919050565b600081519050919050565b6000602082019050919050565b6000602082019050919050565b600082825260208201905092915050565b600082825260208201905092915050565b600082825260208201905092915050565b600081905092915050565b600082825260208201905092915050565b600082825260208201905092915050565b600081905092915050565b600061360982613735565b915061361483613735565b9250827fffffffffffffffffffffffffffffffffffffffffffffffffffffffffffffffff0382111561364957613648613870565b5b828201905092915050565b600061365f82613735565b915061366a83613735565b92508261367a5761367961389f565b5b828204905092915050565b600061369082613735565b915061369b83613735565b9250828210156136ae576136ad613870565b5b828203905092915050565b60006136c482613715565b9050919050565b60006136d682613715565b9050919050565b60008115159050919050565b60007fffffffff0000000000000000000000000000000000000000000000000000000082169050919050565b600073ffffffffffffffffffffffffffffffffffffffff82169050919050565b6000819050919050565b600061374a82613735565b9050919050565b82818337600083830152505050565b60005b8381101561377e578082015181840152602081019050613763565b8381111561378d576000848401525b50505050565b600060028204905060018216806137ab57607f821691505b602082108114156137bf576137be6138ce565b5b50919050565b6137ce8261392c565b810181811067ffffffffffffffff821117156137ed576137ec6138fd565b5b80604052505050565b600061380182613735565b91507fffffffffffffffffffffffffffffffffffffffffffffffffffffffffffffffff82141561383457613833613870565b5b600182019050919050565b600061384a82613735565b915061385583613735565b9250826138655761386461389f565b5b828206905092915050565b7f4e487b7100000000000000000000000000000000000000000000000000000000600052601160045260246000fd5b7f4e487b7100000000000000000000000000000000000000000000000000000000600052601260045260246000fd5b7f4e487b7100000000000000000000000000000000000000000000000000000000600052602260045260246000fd5b7f4e487b7100000000000000000000000000000000000000000000000000000000600052604160045260246000fd5b6000601f19601f8301169050919050565b7f4552433732313a207472616e7366657220746f206e6f6e20455243373231526560008201527f63656976657220696d706c656d656e7465720000000000000000000000000000602082015250565b7f4552433732313a207472616e736665722066726f6d20696e636f72726563742060008201527f6f776e6572000000000000000000000000000000000000000000000000000000602082015250565b7f4552433732313a20746f6b656e20616c7265616479206d696e74656400000000600082015250565b7f4552433732313a207472616e7366657220746f20746865207a65726f2061646460008201527f7265737300000000000000000000000000000000000000000000000000000000602082015250565b7f4552433732313a20617070726f766520746f2063616c6c657200000000000000600082015250565b7f4552433732313a206f70657261746f7220717565727920666f72206e6f6e657860008201527f697374656e7420746f6b656e0000000000000000000000000000000000000000602082015250565b7f4552433732313a20617070726f76652063616c6c6572206973206e6f74206f7760008201527f6e6572206e6f7220617070726f76656420666f7220616c6c0000000000000000602082015250565b7f4552433732313a2062616c616e636520717565727920666f7220746865207a6560008201527f726f206164647265737300000000000000000000000000000000000000000000602082015250565b7f4552433732313a206f776e657220717565727920666f72206e6f6e657869737460008201527f656e7420746f6b656e0000000000000000000000000000000000000000000000602082015250565b7f45524337323155524953746f726167653a2055524920736574206f66206e6f6e60008201527f6578697374656e7420746f6b656e000000000000000000000000000000000000602082015250565b7f496e76616c696420706f73742069640000000000000000000000000000000000600082015250565b7f4552433732313a206d696e7420746f20746865207a65726f2061646472657373600082015250565b7f45524337323155524953746f726167653a2055524920717565727920666f722060008201527f6e6f6e6578697374656e7420746f6b656e000000000000000000000000000000602082015250565b7f4552433732313a20617070726f76656420717565727920666f72206e6f6e657860008201527f697374656e7420746f6b656e0000000000000000000000000000000000000000602082015250565b7f43616e6e6f74207061737320616e20656d707479206861736800000000000000600082015250565b7f4552433732314d657461646174613a2055524920717565727920666f72206e6f60008201527f6e6578697374656e7420746f6b656e0000000000000000000000000000000000602082015250565b7f4552433732313a20617070726f76616c20746f2063757272656e74206f776e6560008201527f7200000000000000000000000000000000000000000000000000000000000000602082015250565b7f546970207472616e73616374696f6e206661696c656400000000000000000000600082015250565b7f4d757374206f776e20746865206e667420796f752077616e7420746f2073656c60008201527f65637420617320796f75722070726f66696c6500000000000000000000000000602082015250565b7f43616e6e6f742074697020796f7572206f776e20706f73740000000000000000600082015250565b50565b7f4d757374206f776e206120646563656e74726174776974746572206e6674207460008201527f6f20706f73740000000000000000000000000000000000000000000000000000602082015250565b7f4552433732313a207472616e736665722063616c6c6572206973206e6f74206f60008201527f776e6572206e6f7220617070726f766564000000000000000000000000000000602082015250565b613f09816136b9565b8114613f1457600080fd5b50565b613f20816136dd565b8114613f2b57600080fd5b50565b613f37816136e9565b8114613f4257600080fd5b50565b613f4e81613735565b8114613f5957600080fd5b5056fea26469706673582212209f1526cea336346474d0e17ca97aeccaf7f9a504f49a60b3d9132c01d20fa58b64736f6c63430008040033",
  "linkReferences": {},
  "deployedLinkReferences": {}
}